{
    "_format": "hh-sol-artifact-1",
    "contractName": "XFQToken",
    "sourceName": "contracts/XFQToken.sol",
    "abi": [
        {
            "inputs": [],
            "stateMutability": "nonpayable",
            "type": "constructor"
        },
        {
            "anonymous": false,
            "inputs": [
                {
                    "indexed": true,
                    "internalType": "address",
                    "name": "owner",
                    "type": "address"
                },
                {
                    "indexed": true,
                    "internalType": "address",
                    "name": "spender",
                    "type": "address"
                },
                {
                    "indexed": false,
                    "internalType": "uint256",
                    "name": "value",
                    "type": "uint256"
                }
            ],
            "name": "Approval",
            "type": "event"
        },
        {
            "anonymous": false,
            "inputs": [
                {
                    "indexed": true,
                    "internalType": "address",
                    "name": "previousOwner",
                    "type": "address"
                },
                {
                    "indexed": true,
                    "internalType": "address",
                    "name": "newOwner",
                    "type": "address"
                }
            ],
            "name": "OwnershipTransferred",
            "type": "event"
        },
        {
            "anonymous": false,
            "inputs": [
                {
                    "indexed": true,
                    "internalType": "address",
                    "name": "from",
                    "type": "address"
                },
                {
                    "indexed": true,
                    "internalType": "address",
                    "name": "to",
                    "type": "address"
                },
                {
                    "indexed": false,
                    "internalType": "uint256",
                    "name": "value",
                    "type": "uint256"
                }
            ],
            "name": "Transfer",
            "type": "event"
        },
        {
            "inputs": [
                {
                    "internalType": "address",
                    "name": "owner",
                    "type": "address"
                },
                {
                    "internalType": "address",
                    "name": "spender",
                    "type": "address"
                }
            ],
            "name": "allowance",
            "outputs": [
                {
                    "internalType": "uint256",
                    "name": "",
                    "type": "uint256"
                }
            ],
            "stateMutability": "view",
            "type": "function"
        },
        {
            "inputs": [
                {
                    "internalType": "address",
                    "name": "spender",
                    "type": "address"
                },
                {
                    "internalType": "uint256",
                    "name": "amount",
                    "type": "uint256"
                }
            ],
            "name": "approve",
            "outputs": [
                {
                    "internalType": "bool",
                    "name": "",
                    "type": "bool"
                }
            ],
            "stateMutability": "nonpayable",
            "type": "function"
        },
        {
            "inputs": [
                {
                    "internalType": "address",
                    "name": "account",
                    "type": "address"
                }
            ],
            "name": "balanceOf",
            "outputs": [
                {
                    "internalType": "uint256",
                    "name": "",
                    "type": "uint256"
                }
            ],
            "stateMutability": "view",
            "type": "function"
        },
        {
            "inputs": [
                {
                    "internalType": "uint256",
                    "name": "amount",
                    "type": "uint256"
                }
            ],
            "name": "burn",
            "outputs": [],
            "stateMutability": "nonpayable",
            "type": "function"
        },
        {
            "inputs": [
                {
                    "internalType": "address",
                    "name": "account",
                    "type": "address"
                },
                {
                    "internalType": "uint256",
                    "name": "amount",
                    "type": "uint256"
                }
            ],
            "name": "burnFrom",
            "outputs": [],
            "stateMutability": "nonpayable",
            "type": "function"
        },
        {
            "inputs": [],
            "name": "decimals",
            "outputs": [
                {
                    "internalType": "uint8",
                    "name": "",
                    "type": "uint8"
                }
            ],
            "stateMutability": "view",
            "type": "function"
        },
        {
            "inputs": [
                {
                    "internalType": "address",
                    "name": "spender",
                    "type": "address"
                },
                {
                    "internalType": "uint256",
                    "name": "subtractedValue",
                    "type": "uint256"
                }
            ],
            "name": "decreaseAllowance",
            "outputs": [
                {
                    "internalType": "bool",
                    "name": "",
                    "type": "bool"
                }
            ],
            "stateMutability": "nonpayable",
            "type": "function"
        },
        {
            "inputs": [
                {
                    "internalType": "address",
                    "name": "spender",
                    "type": "address"
                },
                {
                    "internalType": "uint256",
                    "name": "addedValue",
                    "type": "uint256"
                }
            ],
            "name": "increaseAllowance",
            "outputs": [
                {
                    "internalType": "bool",
                    "name": "",
                    "type": "bool"
                }
            ],
            "stateMutability": "nonpayable",
            "type": "function"
        },
        {
            "inputs": [],
            "name": "maxSupply",
            "outputs": [
                {
                    "internalType": "uint256",
                    "name": "",
                    "type": "uint256"
                }
            ],
            "stateMutability": "view",
            "type": "function"
        },
        {
            "inputs": [
                {
                    "internalType": "uint256",
                    "name": "amount",
                    "type": "uint256"
                }
            ],
            "name": "mint",
            "outputs": [],
            "stateMutability": "payable",
            "type": "function"
        },
        {
            "inputs": [],
            "name": "name",
            "outputs": [
                {
                    "internalType": "string",
                    "name": "",
                    "type": "string"
                }
            ],
            "stateMutability": "view",
            "type": "function"
        },
        {
            "inputs": [],
            "name": "owner",
            "outputs": [
                {
                    "internalType": "address",
                    "name": "",
                    "type": "address"
                }
            ],
            "stateMutability": "view",
            "type": "function"
        },
        {
            "inputs": [],
            "name": "renounceOwnership",
            "outputs": [],
            "stateMutability": "nonpayable",
            "type": "function"
        },
        {
            "inputs": [],
            "name": "returnState",
            "outputs": [
                {
                    "internalType": "uint256",
                    "name": "_myBalance",
                    "type": "uint256"
                },
                {
                    "internalType": "uint256",
                    "name": "_maxSupply",
                    "type": "uint256"
                },
                {
                    "internalType": "uint256",
                    "name": "_totalSupply",
                    "type": "uint256"
                },
                {
                    "internalType": "uint256",
                    "name": "_tokenPrice",
                    "type": "uint256"
                }
            ],
            "stateMutability": "view",
            "type": "function"
        },
        {
            "inputs": [],
            "name": "symbol",
            "outputs": [
                {
                    "internalType": "string",
                    "name": "",
                    "type": "string"
                }
            ],
            "stateMutability": "view",
            "type": "function"
        },
        {
            "inputs": [],
            "name": "tokenPrice",
            "outputs": [
                {
                    "internalType": "uint256",
                    "name": "",
                    "type": "uint256"
                }
            ],
            "stateMutability": "view",
            "type": "function"
        },
        {
            "inputs": [],
            "name": "totalSupply",
            "outputs": [
                {
                    "internalType": "uint256",
                    "name": "",
                    "type": "uint256"
                }
            ],
            "stateMutability": "view",
            "type": "function"
        },
        {
            "inputs": [
                {
                    "internalType": "address",
                    "name": "to",
                    "type": "address"
                },
                {
                    "internalType": "uint256",
                    "name": "amount",
                    "type": "uint256"
                }
            ],
            "name": "transfer",
            "outputs": [
                {
                    "internalType": "bool",
                    "name": "",
                    "type": "bool"
                }
            ],
            "stateMutability": "nonpayable",
            "type": "function"
        },
        {
            "inputs": [
                {
                    "internalType": "address",
                    "name": "from",
                    "type": "address"
                },
                {
                    "internalType": "address",
                    "name": "to",
                    "type": "address"
                },
                {
                    "internalType": "uint256",
                    "name": "amount",
                    "type": "uint256"
                }
            ],
            "name": "transferFrom",
            "outputs": [
                {
                    "internalType": "bool",
                    "name": "",
                    "type": "bool"
                }
            ],
            "stateMutability": "nonpayable",
            "type": "function"
        },
        {
            "inputs": [
                {
                    "internalType": "address",
                    "name": "newOwner",
                    "type": "address"
                }
            ],
            "name": "transferOwnership",
            "outputs": [],
            "stateMutability": "nonpayable",
            "type": "function"
        },
        {
            "inputs": [],
            "name": "withdrawEther",
            "outputs": [],
            "stateMutability": "nonpayable",
            "type": "function"
        }
    ],
    "bytecode": "0x60806040523480156200001157600080fd5b506040518060400160405280600881526020017f584651546f6b656e0000000000000000000000000000000000000000000000008152506040518060400160405280600381526020017f584651000000000000000000000000000000000000000000000000000000000081525081600390816200008f919062000430565b508060049081620000a1919062000430565b505050620000c4620000b8620000e860201b60201c565b620000f060201b60201c565b66470de4df820000600681905550680821ab0d441498000060078190555062000517565b600033905090565b6000600560009054906101000a900473ffffffffffffffffffffffffffffffffffffffff16905081600560006101000a81548173ffffffffffffffffffffffffffffffffffffffff021916908373ffffffffffffffffffffffffffffffffffffffff1602179055508173ffffffffffffffffffffffffffffffffffffffff168173ffffffffffffffffffffffffffffffffffffffff167f8be0079c531659141344cd1fd0a4f28419497f9722a3daafe3b4186f6b6457e060405160405180910390a35050565b600081519050919050565b7f4e487b7100000000000000000000000000000000000000000000000000000000600052604160045260246000fd5b7f4e487b7100000000000000000000000000000000000000000000000000000000600052602260045260246000fd5b600060028204905060018216806200023857607f821691505b6020821081036200024e576200024d620001f0565b5b50919050565b60008190508160005260206000209050919050565b60006020601f8301049050919050565b600082821b905092915050565b600060088302620002b87fffffffffffffffffffffffffffffffffffffffffffffffffffffffffffffffff8262000279565b620002c4868362000279565b95508019841693508086168417925050509392505050565b6000819050919050565b6000819050919050565b6000620003116200030b6200030584620002dc565b620002e6565b620002dc565b9050919050565b6000819050919050565b6200032d83620002f0565b620003456200033c8262000318565b84845462000286565b825550505050565b600090565b6200035c6200034d565b6200036981848462000322565b505050565b5b8181101562000391576200038560008262000352565b6001810190506200036f565b5050565b601f821115620003e057620003aa8162000254565b620003b58462000269565b81016020851015620003c5578190505b620003dd620003d48562000269565b8301826200036e565b50505b505050565b600082821c905092915050565b60006200040560001984600802620003e5565b1980831691505092915050565b6000620004208383620003f2565b9150826002028217905092915050565b6200043b82620001b6565b67ffffffffffffffff811115620004575762000456620001c1565b5b6200046382546200021f565b6200047082828562000395565b600060209050601f831160018114620004a8576000841562000493578287015190505b6200049f858262000412565b8655506200050f565b601f198416620004b88662000254565b60005b82811015620004e257848901518255600182019150602085019450602081019050620004bb565b86831015620005025784890151620004fe601f891682620003f2565b8355505b6001600288020188555050505b505050505050565b61200180620005276000396000f3fe60806040526004361061012a5760003560e01c80637362377b116100ab578063a0712d681161006f578063a0712d68146103d3578063a457c2d7146103ef578063a9059cbb1461042c578063d5abeb0114610469578063dd62ed3e14610494578063f2fde38b146104d15761012a565b80637362377b1461031257806379cc6790146103295780637ff9b596146103525780638da5cb5b1461037d57806395d89b41146103a85761012a565b806339509351116100f2578063395093511461022a57806342966c681461026757806358b455571461029057806370a08231146102be578063715018a6146102fb5761012a565b806306fdde031461012f578063095ea7b31461015a57806318160ddd1461019757806323b872dd146101c2578063313ce567146101ff575b600080fd5b34801561013b57600080fd5b506101446104fa565b604051610151919061143a565b60405180910390f35b34801561016657600080fd5b50610181600480360381019061017c91906114f5565b61058c565b60405161018e9190611550565b60405180910390f35b3480156101a357600080fd5b506101ac6105af565b6040516101b9919061157a565b60405180910390f35b3480156101ce57600080fd5b506101e960048036038101906101e49190611595565b6105b9565b6040516101f69190611550565b60405180910390f35b34801561020b57600080fd5b506102146105e8565b6040516102219190611604565b60405180910390f35b34801561023657600080fd5b50610251600480360381019061024c91906114f5565b6105f1565b60405161025e9190611550565b60405180910390f35b34801561027357600080fd5b5061028e6004803603810190610289919061161f565b610628565b005b34801561029c57600080fd5b506102a561063c565b6040516102b5949392919061164c565b60405180910390f35b3480156102ca57600080fd5b506102e560048036038101906102e09190611691565b610667565b6040516102f2919061157a565b60405180910390f35b34801561030757600080fd5b506103106106af565b005b34801561031e57600080fd5b506103276106c3565b005b34801561033557600080fd5b50610350600480360381019061034b91906114f5565b610714565b005b34801561035e57600080fd5b50610367610734565b604051610374919061157a565b60405180910390f35b34801561038957600080fd5b5061039261073a565b60405161039f91906116cd565b60405180910390f35b3480156103b457600080fd5b506103bd610764565b6040516103ca919061143a565b60405180910390f35b6103ed60048036038101906103e8919061161f565b6107f6565b005b3480156103fb57600080fd5b50610416600480360381019061041191906114f5565b6108bc565b6040516104239190611550565b60405180910390f35b34801561043857600080fd5b50610453600480360381019061044e91906114f5565b610933565b6040516104609190611550565b60405180910390f35b34801561047557600080fd5b5061047e610956565b60405161048b919061157a565b60405180910390f35b3480156104a057600080fd5b506104bb60048036038101906104b691906116e8565b61095c565b6040516104c8919061157a565b60405180910390f35b3480156104dd57600080fd5b506104f860048036038101906104f39190611691565b6109e3565b005b60606003805461050990611757565b80601f016020809104026020016040519081016040528092919081815260200182805461053590611757565b80156105825780601f1061055757610100808354040283529160200191610582565b820191906000526020600020905b81548152906001019060200180831161056557829003601f168201915b5050505050905090565b600080610597610a66565b90506105a4818585610a6e565b600191505092915050565b6000600254905090565b6000806105c4610a66565b90506105d1858285610c37565b6105dc858585610cc3565b60019150509392505050565b60006012905090565b6000806105fc610a66565b905061061d81858561060e858961095c565b61061891906117b7565b610a6e565b600191505092915050565b610639610633610a66565b82610f39565b50565b60008060008061064b33610667565b6007546106566105af565b600654935093509350935090919293565b60008060008373ffffffffffffffffffffffffffffffffffffffff1673ffffffffffffffffffffffffffffffffffffffff168152602001908152602001600020549050919050565b6106b7611106565b6106c16000611184565b565b6106cb611106565b3373ffffffffffffffffffffffffffffffffffffffff166108fc479081150290604051600060405180830381858888f19350505050158015610711573d6000803e3d6000fd5b50565b61072682610720610a66565b83610c37565b6107308282610f39565b5050565b60065481565b6000600560009054906101000a900473ffffffffffffffffffffffffffffffffffffffff16905090565b60606004805461077390611757565b80601f016020809104026020016040519081016040528092919081815260200182805461079f90611757565b80156107ec5780601f106107c1576101008083540402835291602001916107ec565b820191906000526020600020905b8154815290600101906020018083116107cf57829003601f168201915b5050505050905090565b600754816108026105af565b61080c91906117b7565b111561084d576040517f08c379a000000000000000000000000000000000000000000000000000000000815260040161084490611837565b60405180910390fd5b600654670de0b6b3a7640000826108649190611886565b61086e91906118b7565b34146108af576040517f08c379a00000000000000000000000000000000000000000000000000000000081526004016108a690611945565b60405180910390fd5b6108b9338261124a565b50565b6000806108c7610a66565b905060006108d5828661095c565b90508381101561091a576040517f08c379a0000000000000000000000000000000000000000000000000000000008152600401610911906119d7565b60405180910390fd5b6109278286868403610a6e565b60019250505092915050565b60008061093e610a66565b905061094b818585610cc3565b600191505092915050565b60075481565b6000600160008473ffffffffffffffffffffffffffffffffffffffff1673ffffffffffffffffffffffffffffffffffffffff16815260200190815260200160002060008373ffffffffffffffffffffffffffffffffffffffff1673ffffffffffffffffffffffffffffffffffffffff16815260200190815260200160002054905092915050565b6109eb611106565b600073ffffffffffffffffffffffffffffffffffffffff168173ffffffffffffffffffffffffffffffffffffffff1603610a5a576040517f08c379a0000000000000000000000000000000000000000000000000000000008152600401610a5190611a69565b60405180910390fd5b610a6381611184565b50565b600033905090565b600073ffffffffffffffffffffffffffffffffffffffff168373ffffffffffffffffffffffffffffffffffffffff1603610add576040517f08c379a0000000000000000000000000000000000000000000000000000000008152600401610ad490611afb565b60405180910390fd5b600073ffffffffffffffffffffffffffffffffffffffff168273ffffffffffffffffffffffffffffffffffffffff1603610b4c576040517f08c379a0000000000000000000000000000000000000000000000000000000008152600401610b4390611b8d565b60405180910390fd5b80600160008573ffffffffffffffffffffffffffffffffffffffff1673ffffffffffffffffffffffffffffffffffffffff16815260200190815260200160002060008473ffffffffffffffffffffffffffffffffffffffff1673ffffffffffffffffffffffffffffffffffffffff168152602001908152602001600020819055508173ffffffffffffffffffffffffffffffffffffffff168373ffffffffffffffffffffffffffffffffffffffff167f8c5be1e5ebec7d5bd14f71427d1e84f3dd0314c0f7b2291e5b200ac8c7c3b92583604051610c2a919061157a565b60405180910390a3505050565b6000610c43848461095c565b90507fffffffffffffffffffffffffffffffffffffffffffffffffffffffffffffffff8114610cbd5781811015610caf576040517f08c379a0000000000000000000000000000000000000000000000000000000008152600401610ca690611bf9565b60405180910390fd5b610cbc8484848403610a6e565b5b50505050565b600073ffffffffffffffffffffffffffffffffffffffff168373ffffffffffffffffffffffffffffffffffffffff1603610d32576040517f08c379a0000000000000000000000000000000000000000000000000000000008152600401610d2990611c8b565b60405180910390fd5b600073ffffffffffffffffffffffffffffffffffffffff168273ffffffffffffffffffffffffffffffffffffffff1603610da1576040517f08c379a0000000000000000000000000000000000000000000000000000000008152600401610d9890611d1d565b60405180910390fd5b610dac8383836113a0565b60008060008573ffffffffffffffffffffffffffffffffffffffff1673ffffffffffffffffffffffffffffffffffffffff16815260200190815260200160002054905081811015610e32576040517f08c379a0000000000000000000000000000000000000000000000000000000008152600401610e2990611daf565b60405180910390fd5b8181036000808673ffffffffffffffffffffffffffffffffffffffff1673ffffffffffffffffffffffffffffffffffffffff16815260200190815260200160002081905550816000808573ffffffffffffffffffffffffffffffffffffffff1673ffffffffffffffffffffffffffffffffffffffff168152602001908152602001600020600082825401925050819055508273ffffffffffffffffffffffffffffffffffffffff168473ffffffffffffffffffffffffffffffffffffffff167fddf252ad1be2c89b69c2b068fc378daa952ba7f163c4a11628f55a4df523b3ef84604051610f20919061157a565b60405180910390a3610f338484846113a5565b50505050565b600073ffffffffffffffffffffffffffffffffffffffff168273ffffffffffffffffffffffffffffffffffffffff1603610fa8576040517f08c379a0000000000000000000000000000000000000000000000000000000008152600401610f9f90611e41565b60405180910390fd5b610fb4826000836113a0565b60008060008473ffffffffffffffffffffffffffffffffffffffff1673ffffffffffffffffffffffffffffffffffffffff1681526020019081526020016000205490508181101561103a576040517f08c379a000000000000000000000000000000000000000000000000000000000815260040161103190611ed3565b60405180910390fd5b8181036000808573ffffffffffffffffffffffffffffffffffffffff1673ffffffffffffffffffffffffffffffffffffffff1681526020019081526020016000208190555081600260008282540392505081905550600073ffffffffffffffffffffffffffffffffffffffff168373ffffffffffffffffffffffffffffffffffffffff167fddf252ad1be2c89b69c2b068fc378daa952ba7f163c4a11628f55a4df523b3ef846040516110ed919061157a565b60405180910390a3611101836000846113a5565b505050565b61110e610a66565b73ffffffffffffffffffffffffffffffffffffffff1661112c61073a565b73ffffffffffffffffffffffffffffffffffffffff1614611182576040517f08c379a000000000000000000000000000000000000000000000000000000000815260040161117990611f3f565b60405180910390fd5b565b6000600560009054906101000a900473ffffffffffffffffffffffffffffffffffffffff16905081600560006101000a81548173ffffffffffffffffffffffffffffffffffffffff021916908373ffffffffffffffffffffffffffffffffffffffff1602179055508173ffffffffffffffffffffffffffffffffffffffff168173ffffffffffffffffffffffffffffffffffffffff167f8be0079c531659141344cd1fd0a4f28419497f9722a3daafe3b4186f6b6457e060405160405180910390a35050565b600073ffffffffffffffffffffffffffffffffffffffff168273ffffffffffffffffffffffffffffffffffffffff16036112b9576040517f08c379a00000000000000000000000000000000000000000000000000000000081526004016112b090611fab565b60405180910390fd5b6112c5600083836113a0565b80600260008282546112d791906117b7565b92505081905550806000808473ffffffffffffffffffffffffffffffffffffffff1673ffffffffffffffffffffffffffffffffffffffff168152602001908152602001600020600082825401925050819055508173ffffffffffffffffffffffffffffffffffffffff16600073ffffffffffffffffffffffffffffffffffffffff167fddf252ad1be2c89b69c2b068fc378daa952ba7f163c4a11628f55a4df523b3ef83604051611388919061157a565b60405180910390a361139c600083836113a5565b5050565b505050565b505050565b600081519050919050565b600082825260208201905092915050565b60005b838110156113e45780820151818401526020810190506113c9565b60008484015250505050565b6000601f19601f8301169050919050565b600061140c826113aa565b61141681856113b5565b93506114268185602086016113c6565b61142f816113f0565b840191505092915050565b600060208201905081810360008301526114548184611401565b905092915050565b600080fd5b600073ffffffffffffffffffffffffffffffffffffffff82169050919050565b600061148c82611461565b9050919050565b61149c81611481565b81146114a757600080fd5b50565b6000813590506114b981611493565b92915050565b6000819050919050565b6114d2816114bf565b81146114dd57600080fd5b50565b6000813590506114ef816114c9565b92915050565b6000806040838503121561150c5761150b61145c565b5b600061151a858286016114aa565b925050602061152b858286016114e0565b9150509250929050565b60008115159050919050565b61154a81611535565b82525050565b60006020820190506115656000830184611541565b92915050565b611574816114bf565b82525050565b600060208201905061158f600083018461156b565b92915050565b6000806000606084860312156115ae576115ad61145c565b5b60006115bc868287016114aa565b93505060206115cd868287016114aa565b92505060406115de868287016114e0565b9150509250925092565b600060ff82169050919050565b6115fe816115e8565b82525050565b600060208201905061161960008301846115f5565b92915050565b6000602082840312156116355761163461145c565b5b6000611643848285016114e0565b91505092915050565b6000608082019050611661600083018761156b565b61166e602083018661156b565b61167b604083018561156b565b611688606083018461156b565b95945050505050565b6000602082840312156116a7576116a661145c565b5b60006116b5848285016114aa565b91505092915050565b6116c781611481565b82525050565b60006020820190506116e260008301846116be565b92915050565b600080604083850312156116ff576116fe61145c565b5b600061170d858286016114aa565b925050602061171e858286016114aa565b9150509250929050565b7f4e487b7100000000000000000000000000000000000000000000000000000000600052602260045260246000fd5b6000600282049050600182168061176f57607f821691505b60208210810361178257611781611728565b5b50919050565b7f4e487b7100000000000000000000000000000000000000000000000000000000600052601160045260246000fd5b60006117c2826114bf565b91506117cd836114bf565b92508282019050808211156117e5576117e4611788565b5b92915050565b7f4d617820737570706c7920726561636865640000000000000000000000000000600082015250565b60006118216012836113b5565b915061182c826117eb565b602082019050919050565b6000602082019050818103600083015261185081611814565b9050919050565b7f4e487b7100000000000000000000000000000000000000000000000000000000600052601260045260246000fd5b6000611891826114bf565b915061189c836114bf565b9250826118ac576118ab611857565b5b828204905092915050565b60006118c2826114bf565b91506118cd836114bf565b92508282026118db816114bf565b915082820484148315176118f2576118f1611788565b5b5092915050565b7f496e636f727265637420616d6f756e74206f66204554482073656e7400000000600082015250565b600061192f601c836113b5565b915061193a826118f9565b602082019050919050565b6000602082019050818103600083015261195e81611922565b9050919050565b7f45524332303a2064656372656173656420616c6c6f77616e63652062656c6f7760008201527f207a65726f000000000000000000000000000000000000000000000000000000602082015250565b60006119c16025836113b5565b91506119cc82611965565b604082019050919050565b600060208201905081810360008301526119f0816119b4565b9050919050565b7f4f776e61626c653a206e6577206f776e657220697320746865207a65726f206160008201527f6464726573730000000000000000000000000000000000000000000000000000602082015250565b6000611a536026836113b5565b9150611a5e826119f7565b604082019050919050565b60006020820190508181036000830152611a8281611a46565b9050919050565b7f45524332303a20617070726f76652066726f6d20746865207a65726f2061646460008201527f7265737300000000000000000000000000000000000000000000000000000000602082015250565b6000611ae56024836113b5565b9150611af082611a89565b604082019050919050565b60006020820190508181036000830152611b1481611ad8565b9050919050565b7f45524332303a20617070726f766520746f20746865207a65726f20616464726560008201527f7373000000000000000000000000000000000000000000000000000000000000602082015250565b6000611b776022836113b5565b9150611b8282611b1b565b604082019050919050565b60006020820190508181036000830152611ba681611b6a565b9050919050565b7f45524332303a20696e73756666696369656e7420616c6c6f77616e6365000000600082015250565b6000611be3601d836113b5565b9150611bee82611bad565b602082019050919050565b60006020820190508181036000830152611c1281611bd6565b9050919050565b7f45524332303a207472616e736665722066726f6d20746865207a65726f20616460008201527f6472657373000000000000000000000000000000000000000000000000000000602082015250565b6000611c756025836113b5565b9150611c8082611c19565b604082019050919050565b60006020820190508181036000830152611ca481611c68565b9050919050565b7f45524332303a207472616e7366657220746f20746865207a65726f206164647260008201527f6573730000000000000000000000000000000000000000000000000000000000602082015250565b6000611d076023836113b5565b9150611d1282611cab565b604082019050919050565b60006020820190508181036000830152611d3681611cfa565b9050919050565b7f45524332303a207472616e7366657220616d6f756e742065786365656473206260008201527f616c616e63650000000000000000000000000000000000000000000000000000602082015250565b6000611d996026836113b5565b9150611da482611d3d565b604082019050919050565b60006020820190508181036000830152611dc881611d8c565b9050919050565b7f45524332303a206275726e2066726f6d20746865207a65726f2061646472657360008201527f7300000000000000000000000000000000000000000000000000000000000000602082015250565b6000611e2b6021836113b5565b9150611e3682611dcf565b604082019050919050565b60006020820190508181036000830152611e5a81611e1e565b9050919050565b7f45524332303a206275726e20616d6f756e7420657863656564732062616c616e60008201527f6365000000000000000000000000000000000000000000000000000000000000602082015250565b6000611ebd6022836113b5565b9150611ec882611e61565b604082019050919050565b60006020820190508181036000830152611eec81611eb0565b9050919050565b7f4f776e61626c653a2063616c6c6572206973206e6f7420746865206f776e6572600082015250565b6000611f296020836113b5565b9150611f3482611ef3565b602082019050919050565b60006020820190508181036000830152611f5881611f1c565b9050919050565b7f45524332303a206d696e7420746f20746865207a65726f206164647265737300600082015250565b6000611f95601f836113b5565b9150611fa082611f5f565b602082019050919050565b60006020820190508181036000830152611fc481611f88565b905091905056fea2646970667358221220966e0726d015210a122fabd28846acf137cdde6bdc4e5d412bf0657c6916ee5c64736f6c63430008110033",
    "linkReferences": {},
    "deployedLinkReferences": {}
}